:020000040000FA
:060000000A128A110C280F
:10000800FE00030EF3000A08F4000A128A118A2877
:100018000A128A110F28F501F601F701F801831277
:100028000313A001A101A201A301A401A501830159
:100038000A128A113C2983120313A8007328C330BB
:100048009F05203083120313A600A60B2928000061
:10005800831203131F139F131F14831603139F1375
:100068009F121F128928C3309F0520308312031363
:10007800A600A60B3D280000831203131F179F1329
:100088001F14831603139F139F121F128928C3304E
:100098009F05203083120313A600A60B51280000E9
:1000A800831203131F139F171F14831603139F1321
:1000B8009F121F128928C3309F0520308312031313
:1000C800A600A60B65280000831203131F179F17AD
:1000D8001F14831603139F139F121F1289282808C1
:1000E800A600A7012708003A03197B2889282608B3
:1000F800003A03192328013A03193728033A031948
:100108004B28013A03195F28892808008312031332
:100118008C1D8F289028B9280A128A1155210A1295
:100128008A11F100F201710883120313A400720806
:10013800A50075080A128A1165210A128A110A1285
:100148008A1155210A128A11F100F20171088312ED
:100158000313A2007208A30077080A128A11652106
:100168000A128A11831203138C110C1FBC28BD2894
:10017800E5281F0CF100710C0F39003A031DC52842
:10018800C628D2281E08F100F2017108F70072088B
:10019800F8001F08C33904389F00E4281F0CF10039
:1001A800710C0F39013A031DDA28DB28E428C33023
:1001B8009F051E08F100F2017108F5007208F600AB
:1001C8000C1374088A00730E8300FE0E7E0E09005D
:1001D8000330831603178800890183160313051457
:1001E800851485168601880183120313850186010B
:1001F80087018801831603130F128F160F170F1428
:100208008B170B17831203138C11831603138C158A
:1002180083120313A601A701A80124300A128A1128
:100228001E210A128A1102300A128A111F200A128C
:100238008A11080083120313A90083160313871277
:1002480083120313291D29292A29302928088316EE
:1002580003139400871536292608280483160313E8
:1002680094008711831203132908270494000800B7
:100278000A128A11EC200A128A11831203139F189A
:10028800462947294129203083120313AA00AA0BC3
:100298004B290000831203139F1441290A128A1163
:1002A8000C280A128A115E210A128A11831203137A
:1002B8001308080083160313141C632964295E2994
:0E02C8000800F0007008831203139300080072
:04400E00D420FF3F7C
:00000001FF
