:020000040000FA
:060000000A128A11F82F1C
:100D2600F00070088312031393000800F300831683
:100D360003138712731DA02EA12EA52E72089400F0
:100D46008715A92E70087204940087117308710420
:100D560083120313940008000330831603178800D8
:100D660089018316031305148514851686018312DB
:100D7600031385018601870188018901F001F101CC
:100D8600F20120300A128A1199260A128A110800E5
:100D96000A128A11AF260A128A1100300A128A1123
:100DA60011270A128A11F4007408F80001300A1299
:100DB6008A1111270A128A11F4007408F7008312A7
:100DC60003138C1DE72EE82E0E2F1F0CF400740C57
:100DD6000F39003A031DF02EF12EFB2E78080A1269
:100DE6008A1193260A128A118312031309140D2FEE
:100DF6001F0CF400740C0F39013A031D032F042F46
:100E06000D2F77080A128A1193260A128A11831265
:100E1600031309108C110A128A110028F20083129A
:100E260003131F179F13831603139F01B42F051473
:100E3600831603170814C330831203139F05E82F84
:100E46008514831603178814831203131F08C339E6
:100E560004389F00E82F051583160317081583121B
:100E660003131F08C33908389F00E82F851583161A
:100E760003178815831203131F08C3390C389F0004
:100E8600E82F8516831603170816831203131F0807
:100E9600C33910389F00E82F0914831603178816E4
:100EA600831203131F08C33914389F00E82F8914CF
:100EB600831603170817831203131F08C33918383C
:100EC6009F00E82F0915831603178817831203134B
:100ED6001F08C3391C389F00E82F06158316031711
:100EE6000914831203131F08C33920389F00E82F03
:100EF6008615831603178914831203131F08C33933
:100F060024389F00E82F86148316031709158312C9
:100F160003131F08C33928389F00E82F06168316C7
:100F260003178915831203131F08C3392C389F0032
:100F3600E82F0614831603170916831203131F08D6
:100F4600C33930389F00E82F861683160317891693
:100F5600831203131F08C33934389F00E82F00306B
:100F6600F72F7208F000F1017108003A0319BC2F3F
:100F7600B22F7008003A03191A2F013A0319232FCA
:100F8600033A03192E2F013A0319392F073A031989
:100F9600442F013A03194F2F033A03195A2F013AE6
:100FA6000319652F0F3A0319702F013A03197B2F86
:100FB600033A0319862F013A0319912F073A0319A9
:100FC6009C2F013A0319A72FB22F1F145330F0009C
:100FD600F00BEB2F831203139F149F1CF32FF42F98
:100FE600F52FF02F1F101E080800F501F601F70176
:0A0FF600F80183010A128A11CB2EC4
:04400E00D420FF3F7C
:00000001FF
