:020000040000FA
:060000000A128A110C280F
:10000800FE00030EF0000A08F1000A128A1177298F
:100018000A128A110F28F701F801F901FA01830180
:100028000A128A110029F400831203131F083F39AA
:1000380040389F00831603139F01BC2805148316BC
:1000480003170814C330831203139F05F02885147F
:10005800831603178814831203131F08C33904383F
:100068009F00F0280515831603170815831203133C
:100078001F08C33908389F00F02885158316031711
:100088008815831203131F08C3390C389F00F02802
:100098008516831603170816831203131F08C3391E
:1000A80010389F00F0280914831603178816831246
:1000B80003131F08C33914389F00F02889148316C6
:1000C80003170817831203131F08C33918389F0032
:1000D800F0280915831603178817831203131F08BE
:1000E800C3391C389F00F028061583160317091416
:1000F800831203131F08C33920389F00F028861580
:10010800831603178914831203131F08C33924386D
:100118009F00F0288614831603170915831203130A
:100128001F08C33928389F00F028061683160317BE
:100138008915831203131F08C3392C389F00F02830
:100148000614831603170916831203131F08C339ED
:1001580030389F00F02886168316031789168312F5
:1001680003131F08C33934389F00F0280030FF28D4
:100178007408F200F3017308003A0319C428BA2876
:100188007208003A03192228013A03192B28033A66
:1001980003193628013A03194128073A03194C284C
:1001A800013A03195728033A03196228013A031937
:1001B8006D280F3A03197828013A03198328033A5E
:1001C80003198E28013A03199928073A0319A42814
:1001D800013A0319AF28BA281F145330F200F20B62
:1001E800F328831203139F149F1CFB28FC28FD2867
:1001F800F8281F101E0808000A128A1146210A1240
:100208008A1100300A128A1117200A128A11F60080
:100218007608FA0001300A128A1117200A128A1188
:10022800F6007608F900831203138C1D1C291D297A
:1002380043291F0CF600760C0F39003A031D2529B7
:10024800262930297A080A128A117E210A128A116F
:1002580083120313091442291F0CF600760C0F3978
:10026800013A031D38293929422979080A128A11C5
:100278007E210A128A118312031309108C110A12A3
:100288008A110C2803308316031788008901831606
:10029800031305148514860183120313850186014F
:1002A800870188018901F201F301F40120300A1263
:1002B8008A1161210A128A110800F50083160313B6
:1002C8008712751D682969296D2974089400871596
:1002D80071297208740494008711750873048312D5
:1002E80003139400080071088A00700E8300FE0E44
:1002F8007E0E0900F20072088312031393000800AF
:04400E00D420FF3F7C
:00000001FF
