:020000040000FA
:060000000A128A110C280F
:10000800FE00030EF1000A08F2000A128A111428F1
:100018000A128A110F28F40183010A128A11CF28C3
:100028000B1C172818282B288312031306181D28C1
:100038001E2822280508013E0F3985008618252824
:1000480026282A280508FF3E0F3985000B10831241
:1000580003138C1D3028312885281412141B3528C9
:1000680036283A28941F39283A2841281308F000DE
:100078007008F40014139413141683160313941AB7
:1000880046284728622814194A284B2862288312D0
:1000980003131308F0007008F4008C11141683166B
:1000A8000313141C582859285328831203131308C0
:1000B80085005330F000F00B5F288228941A6528D9
:1000C80066288228141D69286A2882288312031347
:1000D8001308F0007008F400831603131410831239
:1000E80003130508930014165330F000F00B7A2818
:1000F800831603131418812882287C28831203137B
:100108008C1172088A00710E8300FE0E7E0E0900A3
:1001180083160317880189018316031306148614AE
:1001280088018501831203138501860187018801EF
:100138008901831603130F128F160F170F148B17CD
:100148000B178B150B1060300A128A11B5200A1292
:100158008A1183160313811303309500161496141D
:100168000800F300730883160313930036308312D4
:100178000313940080308316031394000130910018
:10018800871507168B170B17831203138C11831609
:1001980003138C1508000A128A118C200A128A117E
:0801A800D4280A128A110C2868
:04400E00D420FF3F7C
:00000001FF
