:020000040000FA
:060000000A128A110C280F
:10000800FE00030EF1000A08F2000A128A111728EE
:100018000A128A110F28F501F601F701F801830188
:100028000A128A11A428831203130C1F1C281D28E6
:100038009D281F0CF000700C0F39003A031D25286D
:1000480026283D281E08F0007008F800C8307802FD
:10005800031C2F283028322807143B283330780215
:100068000318372838283A2887143B2807108710A0
:100078009C281F0CF000700C0F39013A031D45280D
:1000880046285D281E08F0007008F700C83077027F
:10009800031C4F285028522807155B283330770255
:1000A8000318572858285A2887155B2807118711DD
:1000B8009C281F0CF000700C0F39023A031D6528AC
:1000C80066287D281E08F0007008F600C830760201
:1000D800031C6F287028722807167B283330760295
:1000E8000318772878287A2887167B28071287121A
:1000F8009C281F0CF000700C0F39033A031D85284B
:1001080086289C281E08F0007008F500C830750283
:10011800031C8F289028922807179B2833307502D4
:100128000318972898289A2887179B280713871356
:100138000C1372088A00710E8300FE0E7E0E0900F1
:100148000A128A11E7200A128A11831203139F14D4
:100158009F18AF28B028AC281F0CF400740C0F3976
:10016800003A031DB828B928BE281F08C339043827
:100178009F00DC281F0CF400740C0F39013A031D92
:10018800C628C728CC281F08C33908389F00DC2890
:100198001F0CF400740C0F39023A031DD428D5281B
:1001A800DA281F08C3390C389F00DC28C3309F05A4
:1001B8002130F400F40BDE28831203139F14AC28BB
:1001C8000A128A110C28831603130F178F160F169D
:1001D8000F140F3083160317880089018316031341
:1001E8000514851405158515FF3087008312031340
:1001F80085018701831603139F131F129F12831211
:1002080003131F083F3980389F001F14C3309F0510
:100218002130F300F30B0E298B170B1783160313EA
:0A0228000C17831203130C130800D7
:04400E00D438FF3F64
:00000001FF
