:020000040000FA
:060000000A128A110C280F
:10000800FE00030EF0000A08F1000A128A11D32E2E
:100018000A128A110F28FA01FB0183120313E9015E
:10002800EA01EB01EC0183160313A001A101A2016F
:10003800A301A401A501A601A70183010A128A113F
:100048000A2FFF0000308A007F0882072A280A1238
:100058008A11322F023083160313AA004530A900F3
:10006800A930A800A80B3628A90B3628AA0B3628D1
:100078008316031320080A128A1134240A128A11DB
:1000880095300A128A11EF260A128A110230831655
:100098000313AA004530A900A930A800A80B5228CC
:1000A800A90B5228AA0B52287B0883120313990024
:1000B800023083160313AA004530A900A930A8000E
:1000C800A80B6428A90B6428AA0B642883160313B9
:1000D8002608831203139900023083160313AA001B
:1000E8004530A900A930A800A80B7828A90B7828C2
:1000F800AA0B782883160313250883120313990083
:10010800023083160313AA004530A900A930A800BD
:10011800A80B8C28A90B8C28AA0B8C282E300A1225
:100128008A11EF260A128A110B300A128A11EF2659
:100138000A128A11831203138C1EA328A4289E284E
:100148001A08D03E83160313A80028088312031345
:10015800EA0033301A020318B228B3289E28303038
:100168000A128A11EF260A128A11831203138C1EAF
:10017800BE28BF28B9281A08D03E83160313A80042
:10018800280883120313EB0002306A06031DCD28EA
:10019800CE28D42836301A020318D328D428B928F0
:1001A80053300A128A11EF260A128A118312031396
:1001B8008C1EDF28E028DA281A08D03E831603139D
:1001C800A8002808A4000230831203136A06031D3E
:1001D800EE28EF28FB2805306B06031DF428F528C8
:1001E800FB2836301A020318FA28FB28DA286A088E
:1001F80083160313A800A901280883120313BA0061
:1002080083160313290883120313BB006B08831694
:100218000313AA00AB012A0883120313BC00831638
:1002280003132B0883120313BD000A128A11B02589
:100238000A128A11831203133A0883160313AC00B7
:100248002C08A2002208A800A90128088312031379
:10025800BA0083160313290883120313BB008316FD
:1002680003132408AA00AB012A0883120313BC0055
:10027800831603132B0883120313BD000A128A1175
:10028800B0250A128A11831203133A08831603133E
:10029800AC002C0883120313E90002308316031301
:1002A800AA004530A900A930A800A80B5929A90B14
:1002B8005929AA0B592983120313690883160313B2
:1002C800A800A901280883120313B1008316031399
:1002D800290883120313B20076300A128A11EF2616
:1002E8000A128A1183120313690883160313A800DC
:1002F800A9012808A0002908A1008312031369088E
:1003080083160313A800280883120313EC000800BF
:1003180083120313B000AB2A25302F060319952941
:100328009629BC29300A84008313000803199D29E3
:100338009E29AD292F08A8002808F200300A840059
:1003480000080A128A1125200A128A11831203133F
:100358008F292F08A8003008840000088400280886
:1003680080000130A80030088400280880078F2901
:10037800AB010130A607FF30260784000A128A1154
:1003880000230A128A11AF00A800A9012908003A1F
:100398000319CF29AB2A2808003A0319BF2A643A5F
:1003A8000319DA290D3A0319DA29AB2A2708840038
:1003B80083130008A800023080072808840000087A
:1003C800AD00840A0008AE00AE1FEB29EC29F52920
:1003D8000330A8002808AB04AD09AE09AD0A03191B
:1003E800AE0AAF01AF0A2F08A8002807013E840013
:1003F8000A128A1100230A128A11A9000A128A1104
:1004080000230A128A11AA002A082E02031D0E2AA6
:1004180029082D020318112A122A132A1D2A01302D
:10042800A8002808AF0705302F06031D1C2A1D2A1F
:10043800F7292B0803390319222A232A462A300AC6
:1004480084008313000803192A2A2B2A382A2D30FE
:10045800A8002808F200300A840000080A128A114D
:1004680025200A128A11462A2D30A8003008840057
:1004780000088400280880000130A80030088400A3
:1004880028088007831203132F08A8002808AC0047
:10049800A02A0A30A0000030A1002C08A8002807D4
:1004A800013E84000A128A1100230A128A11F200FE
:1004B8000A128A1100230A128A11F3002E08F50085
:1004C8002D08F4000A128A116C250A128A11730881
:1004D80083120313A3007208A2000A128A11ED25E1
:1004E8000A128A11831203132008303EA900290832
:1004F800AF00300A8400831300080319842A852A70
:10050800922A2F08A8002808F200300A8400000860
:100518000A128A1125200A128A11A02A2F08A80077
:100528003008840000088400280880000130A800F2
:100538003008840028088007FF3083120313A800BE
:100548002808AC072C0A031DAA2AAB2A4D2A013019
:1005580083120313A607FF30260784000A128A11A4
:1005680000230A128A11A8002808AF002F08031DCB
:0C057800BE2ABF2A9029A601A701080096
:1006000003308A000408840A82070034013400346D
:100610000A34003464340034E834033410342734AA
:100620000D3449346E346734723465347334653450
:10063000203465346C342034763461346C346F3457
:1006400072342034643465342034633465346E3459
:10065000743465346E3461343A34203428343034A0
:100660002D34323429340D34003449346E34673437
:100670007234653473346534203465346C3420341A
:10068000763461346C346F347234203464346534BD
:10069000203464346534633465346E3461343A3400
:1006A0002034283430342D34353429340D3400349A
:1006B00049346E34673472346534733465342034AD
:1006C00065346C342034763461346C346F34723475
:1006D000203464346534203475346E3469346434C1
:1006E000613464343A342034283430342D34353491
:1006F00029340D3400340D3445346C3420347634D0
:1007000061346C346F3472342034733465346C3437
:1007100065346334633469346F346E346134643403
:100720006F342034653473343A34203425346434DF
:100730000D340034563461346C346F3472342034E8
:1007400064346534203463346F346E34743461340B
:1007500064346F3472343A340D34003425346434E4
:10076000003483120313A500B92B0130A000200828
:10077000A507250884002030831300060319C12B28
:10078000C22BB52B25088400093000060319C92B9C
:10079000CA2BB52BA301A401A201250884002D308A
:1007A0000006031DD42BD52BDE2B0130A000200822
:1007B000A2070130A0002008A507102C25088400FE
:1007C0002B300006031DE52BE62B102C0130A0007A
:1007D0002008A507102C8312031325088400240881
:1007E000F3002308F2000A30F4000030F5000A128A
:1007F0008A118D260A128A11831300087207831248
:100800000313A0000030031801307307A100200873
:10081000D03EA30021080318013EFF3EA400E62BB2
:100820002508840000080A128A1120270A128A115A
:1008300003181B2C1C2CEB2B831203132208031907
:10084000222C232C2F2C2309A0002409A100A00A6C
:100850000319A10A2008F8002108F900332C240804
:10086000F9002308F8000800F9006430F2000030B5
:10087000F300790883120313A400A5012408F400EF
:100880002508F5000A128A11AA240A128A11720890
:1008900083120313A6002608FB006430F200003028
:1008A000F3007908A400A5012408F4002508F50048
:1008B0000A128A1113250A128A117208831203136D
:1008C000A6002608FA000A30F2000030F3007A0889
:1008D000A400A5012408F4002508F5000A128A11D5
:1008E000AA240A128A11720883120313A60026088A
:1008F00083160313A6000A30F2000030F3007A08D2
:1009000083120313A400A5012408F4002508F500B0
:100910000A128A1113250A128A117208831203130C
:10092000A600260883160313A50030308312031394
:10093000A4002408FB073030A40024088316031306
:10094000A607303083120313A40024088316031370
:10095000A507080083120313A101F31FB02CB12CCB
:10096000B82CF209F309F20A0319F30AA101A10A4A
:10097000F51FBB2CBC2CC52CF409F509F40A03198E
:10098000F50A0130F6007608A106A201A30172085B
:1009900073040319CC2CCD2C042DA001A00ADB2C50
:1009A00001300310F20DF30DFF3E031DD12C013079
:1009B000F6007608A007F31FDE2CDF2CD02C0130C8
:1009C0000310A20DA30DFF3E031DE02C730875025A
:1009D000031DEC2C72087402031CEF2CF02CF72C76
:1009E0007208F4027308031CF503F50222140130A7
:1009F0000310F30CF20CFF3E031DF82C0130A00293
:100A0000031D032D042DDF2C21080319082D092DAA
:100A10000E2DA209A309A20A0319A30A2308F300B1
:100A20002208F2000800F801F51F172D182D1F2DC0
:100A3000F409F509F40A0319F50AF801F80AF31F95
:100A4000222D232D282DF209F309F20A0319F30AA6
:100A50007208730403192D2D2E2D5D2DF701F70A51
:100A60003C2D01300310F20DF30DFF3E031D322D1E
:100A70000130F6007608F707F31F3F2D402D312D8A
:100A800073087502031D462D72087402031C492D5C
:100A90004A2D502D7208F4027308031CF503F50269
:100AA00001300310F30CF20CFF3E031D512D0130F9
:100AB000F702031D5C2D5D2D402D78080319612D73
:100AC000622D672DF409F509F40A0319F50A750872
:100AD000F3007408F2000800F701F80172087304CB
:100AE0000319732D742DAB2DF901F90A822D0130F4
:100AF0000310F20DF30DFF3E031D782D0130F600BB
:100B00007608F907F31F852D862D772D0130031008
:100B1000F70DF80DFF3E031D872D73087502031DA9
:100B2000932D72087402031C962D972D9E2D72082A
:100B3000F4027308031CF503F50277140130031067
:100B4000F30CF20CFF3E031D9F2D0130F902031D33
:100B5000AA2DAB2D862D7808F3007708F200080047
:100B6000A93083120313BE003E08B1003B08B30056
:100B70003A08B20053300A128A11B2260A128A11B8
:100B8000A93083120313BE003E08B1003D08B30034
:100B90003C08B2003F300A128A11B2260A128A11AA
:100BA0003F3083120313BE003E08F20053300A1296
:100BB0008A1164260A128A1153300A128A11B1234B
:100BC0000A128A11790883120313E8007808E700F3
:100BD0006808BB006708BA000800831203132008E6
:100BE00021040319F42DF52D242EA501A50A032EA9
:100BF00001300310A00DA10DFF3E031DF92D0130A2
:100C0000A4002408A507A11F062E072EF82D2108F1
:100C10002302031D0D2E20082202031C102E112E6C
:100C2000172E2008A2022108031CA303A3020130EF
:100C30000310A10CA00CFF3E031D182E0130A502CD
:100C4000031D232E242E072E2308A1002208A00016
:100C50000800831603178801890183160313850191
:100C60000614861488018312031385018601870107
:100C700088018901831603130F128F160F170F14A3
:100C8000811303309500161496148B170B178B15D0
:100C90000B108C120C1218121815831603178711DB
:100CA000193083160313990001309A00831203133D
:100CB000981718131816831603131813981683120F
:100CC00003138C120C120800F4007408F30073086C
:100CD000F5006E2E0130F3007308F50775088400E7
:100CE00083130008031D752E762E6A2E7F2E013089
:100CF000F3007308F5070130F3007308F207720878
:100D000084000008F3007508840073088000000860
:100D1000031D8B2E8C2E772E0800F601F701721C16
:100D2000922E932E992E7408F6070318F70A750869
:100D3000F70701300310F40DF50DFF3E031D9A2E49
:100D400001300310F30CF20CFF3E031DA12E7208BC
:100D50007304031DAC2EAD2E8F2E7708F30076089A
:100D6000F200080083120313B6003608B4003408FA
:100D7000B800B9013230B4003408B7003108B4000B
:100D80003408A6003730B5003508A70038300A12FD
:100D90008A118C210A128A118312031338088400E5
:100DA0008313800108000B1CD62ED72EE82E831249
:100DB00003130618DC2EDD2EE02E0808013E880005
:100DC0008618E32EE42EE72E0808FF3E88000B105D
:100DD00071088A00700E8300FE0E7E0E09008312D9
:100DE0000313B600B7010130B3003308B800313047
:100DF000B3003308B5003608B3003308A600353019
:100E0000B4003408A70037300A128A118C210A1264
:100E10008A1108000A128A1129260A128A118316D9
:100E2000031320088312031388006C0885000A123C
:100E30008A112E200A128A110F2F0A128A110C28E9
:100E4000F300F2013A3073020318272F282F302FB6
:100E500030307302031C2D2F2E2F302FF201F20A97
:100E6000720C0800831203130C1E372F382F322FF9
:060E700072089900080061
:04400E00D420FF3F7C
:00000001FF
