:020000040000FA
:100000000A128A11EC2FFF0000308A007F08820755
:1000100008280A128A11342900308A000408840A48
:1000200082070034013400340A340034643400346C
:10003000E8340334103427340D3449346E346734D3
:100040007234653473346534203465346C34203450
:10005000763461346C346F347234203464346534F3
:100060002034633465346E34743465346E346134F2
:100070003A342034283430342D34323429340D3499
:10008000003449346E346734723465347334653403
:10009000203465346C342034763461346C346F34FD
:1000A0007234203464346534203464346534633409
:1000B00065346E3461343A342034283430342D348D
:1000C000353429340D34003449346E346734723495
:1000D000653473346534203465346C3420347634BC
:1000E00061346C346F3472342034643465342034B9
:1000F00075346E3469346434613464343A34203491
:10010000283430342D34353429340D3400340D3452
:1001100045346C342034763461346C346F3472344A
:100120002034733465346C34653463346334693437
:100130006F346E34613464346F3420346534733416
:100140003A342034253464340D3400340D345634BC
:1001500061346C346F347234203465346E3420343E
:1001600065346C34203450346F347434203431347A
:100170003A340D3400340D34563461346C346F34F9
:100180007234203465346E34203465346C34203459
:1001900050346F347434203432343A340D340034F3
:1001A0002034203400342034563400342534643470
:0201B000003419
:10024E00F000700883120313930008008316031343
:10025E00141C322933292D290800831203130C1E76
:10026E0039293A2934297008990008000A128A118E
:10027E002D210A128A118312031313080800F100AC
:10028E00F0013A30710203184D294E2956293030AB
:10029E007102031C532954295629F001F00A700CDF
:1002AE000800F300831603138712731D5F2960295C
:1002BE0064297208940087156829700872049400E6
:1002CE0087117308710483120313940008008312BC
:1002DE000313B000B1010130AD002D08B2002B3078
:1002EE00AD002D08AF003008AD002D08A0002F3056
:1002FE00AE002E08A10031300A128A11B8260A1259
:10030E008A11080083160313181218158316031783
:10031E008711193083160313990001309A00831246
:10032E000313981718131816831603131813981619
:10033E008B170B17831203130C128C1208008312E7
:10034E000313B1003108AE002E08B200B3012C30F9
:10035E00AE002E08B0002B08AE002E08A0003030E4
:10036E00AF002F08A10032300A128A11B8260A12E5
:10037E008A1183120313320884008313800108004C
:10038E00831603178801890183160313071186014B
:10039E00831203138601870188010715F001F1010D
:1003AE00F20120300A128A1158210A128A1183167C
:1003BE0003130F128F160F170F140A128A118921A9
:1003CE000A128A110800F401F501701CEF29F029B8
:1003DE00F6297208F4070318F50A7308F5070130B9
:1003EE000310F20DF30DFF3E031DF729013003102C
:1003FE00F10CF00CFF3E031DFE2970087104031D65
:10040E00092A0A2AEC297508F1007408F000080080
:10041E00F2007208F1007108F300192A0130F100A0
:10042E007108F3077308840083130008031D202A44
:10043E00212A152A2A2A0130F1007108F30701300A
:10044E00F1007108F007700884000008F1007308CD
:10045E008400710880000008031D362A372A222ADC
:10046E0008007808790403193D2A3E2A6D2AFD01F9
:10047E00FD0A4C2A01300310F80DF90DFF3E031D45
:10048E00422A0130FC007C08FD07F91F4F2A502A32
:10049E00412A79087B02031D562A78087A02031C2A
:1004AE00592A5A2A602A7808FA027908031CFB0393
:1004BE00FB0201300310F90CF80CFF3E031D612AFC
:1004CE000130FD02031D6C2A6D2A502A7B08F900AB
:1004DE007A08F8000800C53083120313B8003808F4
:1004EE00AB003508AD003408AC004D300A128A114D
:1004FE00A6210A128A11C53083120313B8003808D8
:10050E00AB003708AD003608AC0039300A128A113C
:10051E00A6210A128A11393083120313B800380843
:10052E00F0004D300A128A110F220A128A114D3034
:10053E000A128A117F240A128A1177088312031372
:10054E00E2007608E1006208B5006108B400080018
:10055E00F501F601700871040319B62AB72AEE2ABE
:10056E00F701F70AC52A01300310F00DF10DFF3E19
:10057E00031DBB2A0130F4007408F707F11FC82AC7
:10058E00C92ABA2A01300310F50DF60DFF3E031DE0
:10059E00CA2A71087302031DD62A70087202031C40
:1005AE00D92ADA2AE12A7008F2027108031CF30331
:1005BE00F302751401300310F10CF00CFF3E031D15
:1005CE00E22A0130F702031DED2AEE2AC92A760827
:1005DE00F1007508F0000800F601F31FF72AF82A5B
:1005EE00FF2AF209F309F20A0319F30AF601F60AD1
:1005FE00F11F022B032B082BF009F109F00A031946
:10060E00F10A7008710403190D2B0E2B3D2BF50109
:10061E00F50A1C2B01300310F00DF10DFF3E031DEA
:10062E00122B0130F4007408F507F11F1F2B202B3D
:10063E00112B71087302031D262B70087202031C06
:10064E00292B2A2B302B7008F2027108031CF3039E
:10065E00F30201300310F10CF00CFF3E031D312BA1
:10066E000130F502031D3C2B3D2B202B7608031980
:10067E00412B422B472BF209F309F20A0319F30A15
:10068E007308F1007208F0000800FC003230F00030
:10069E000030F1007C08F900FA017908F2007A08BE
:1006AE00F3000A128A1118240A128A117008FB002C
:1006BE007B0883120313EE006430F0000030F1006B
:1006CE007C08F900FA017908F2007A08F3000A12A0
:1006DE008A11F3220A128A117008FB007B0883121A
:1006EE000313EB000A30F0000030F1006B08F90044
:1006FE00FA017908F2007A08F3000A128A11182416
:10070E000A128A117008FB007B0883120313ED0096
:10071E000A30F0000030F1006B08F900FA01790898
:10072E00F2007A08F3000A128A11F3220A128A11D1
:10073E007008FB007B0883120313EC003030F900C5
:10074E007908EE073030F9007908ED073030F900FE
:10075E007908EC0708000A128A11C7210A128A11B9
:10076E00831203130711C73083120313E800BF2B44
:10077E00E80BBE2BC22B0A300A128A1127210A124D
:10078E008A110A128A113D210A128A118312031349
:10079E00E8006808EF00C73083120313E800D72B78
:1007AE00E80BD62BDA2B0A300A128A1127210A12ED
:1007BE008A110A128A113D210A128A118312031319
:1007CE00E800680883160313A400C73083120313CE
:1007DE00E800F12BE80BF02BF42BC7308312031338
:1007EE00E800F92BE80BF82BFC2B831203130715EB
:1007FE000A128A11FA240A128A110A128A117B2508
:10080E000A128A110A128A11FC250A128A118316FB
:10081E0003132008831203138600B72B0A128A11C2
:10082E000028F601F11F1C2C1D2C242CF009F109B7
:10083E00F00A0319F10AF601F60AF31F272C282CE9
:10084E00312CF209F309F20A0319F30A0130F4000C
:10085E007408F606F701F801700871040319382CB4
:10086E00392C702CF501F50A472C01300310F00DD0
:10087E00F10DFF3E031D3D2C0130F4007408F50709
:10088E00F11F4A2C4B2C3C2C01300310F70DF80DA8
:10089E00FF3E031D4C2C71087302031D582C70086B
:1008AE007202031C5B2C5C2C632C7008F202710824
:1008BE00031CF303F302771401300310F10CF00C58
:1008CE00FF3E031D642C0130F502031D6F2C702CAE
:1008DE004B2C76080319742C752C7A2CF709F80911
:1008EE00F70A0319F80A7808F1007708F0000800F3
:1008FE00FD00852C0130F8007808FD077D08840086
:10090E0020308313000603198D2C8E2C812C7D082C
:10091E008400093000060319952C962C812CFB01BE
:10092E00FC01FA017D0884002D300006031DA02C69
:10093E00A12CAA2C0130F8007808FA070130F80033
:10094E007808FD07D82C7D0884002B300006031D87
:10095E00B12CB22CD82C0130F8007808FD07D82C19
:10096E007D0884007C08F1007B08F0000A30F2005C
:10097E000030F3000A128A11EA210A128A11831337
:10098E0000087007F8000030031801307107F900F5
:10099E007808D03EFB0079080318013EFF3EFC00AC
:1009AE00B22C7D08840000080A128A1146210A1210
:1009BE008A110318E32CE42CB72C7A080319E82CBF
:1009CE00E92CF52C7B09F8007C09F900F80A0319CB
:1009DE00F90A7808F6007908F700F92C7C08F70078
:1009EE007B08F6000800831203136F080A128A119F
:1009FE004C230A128A11823083120313B400DD30A5
:100A0E00B300B30B082DB40B082D95300A128A11C2
:100A1E006E210A128A11823083120313B400DD3064
:100A2E00B300B30B182DB40B182DBF300A128A1158
:100A3E006E210A128A11823083120313B400DD3044
:100A4E00B300B30B282DB40B282D831203136E089D
:100A5E009900823083120313B400DD30B300B30B60
:100A6E00362DB40B362D2E3083120313990082309F
:100A7E0083120313B400DD30B300B30B442DB40B5B
:100A8E00442D831203136D089900823083120313D1
:100A9E00B400DD30B300B30B522DB40B522D8312C4
:100AAE0003136C089900823083120313B400DD30F7
:100ABE00B300B30B602DB40B602DC2300A128A1135
:100ACE006E210A128A11823083120313B400DD30B4
:100ADE00B300B30B702DB40B702D2E300A128A1189
:100AEE006E210A128A1108008316031324080A12B3
:100AFE008A114C230A128A11823083120313B40016
:100B0E00DD30B300B30B892DB40B892DAA300A1238
:100B1E008A116E210A128A11823083120313B400D5
:100B2E00DD30B300B30B992DB40B992DBF300A12E3
:100B3E008A116E210A128A11823083120313B400B5
:100B4E00DD30B300B30BA92DB40BA92D8312031303
:100B5E006E089900823083120313B400DD30B300A7
:100B6E00B30BB72DB40BB72D2E3083120313990090
:100B7E00823083120313B400DD30B300B30BC52DE6
:100B8E00B40BC52D831203136D08990082308312A6
:100B9E000313B400DD30B300B30BD32DB40BD32D40
:100BAE00831203136C089900823083120313B4006E
:100BBE00DD30B300B30BE12DB40BE12DC2300A12C0
:100BCE008A116E210A128A11823083120313B40025
:100BDE00DD30B300B30BF12DB40BF12D2E300A1214
:100BEE008A116E210A128A1108000B300A128A111C
:100BFE006E210A128A11831203138C1E072E082EE1
:100C0E00022E1A08D03EE3006308EA0033301A02BF
:100C1E000318122E132E022E30300A128A116E2154
:100C2E000A128A11831203138C1E1E2E1F2E192ECA
:100C3E001A08D03EE3006308E90002306A06031D7D
:100C4E00292E2A2E302E36301A0203182F2E302E31
:100C5E00192E53300A128A116E210A128A1183122A
:100C6E0003138C1E3B2E3C2E362E1A08D03EE3006C
:100C7E00630883160313A3000230831203136A065C
:100C8E00031D4A2E4B2E572E05306906031D502E7E
:100C9E00512E572E36301A020318562E572E362E38
:100CAE006A08E300E4016308B4006408B50069084B
:100CBE00E500E6016508B6006608B7000A128A115B
:100CCE0072220A128A11831203133408E70067088E
:100CDE0083160313A200220883120313E300E40118
:100CEE006308B4006408B500831603132308831247
:100CFE000313E500E6016508B6006608B7000A12A0
:100D0E008A1172220A128A1183120313350883166E
:100D1E000313A10083120313340883160313A000D8
:100D2E00023083120313E5004530E400A930E300DE
:100D3E00E30B9F2EE40B9F2EE50B9F2E83160313C2
:100D4E00210883120313AC008316031320088312A9
:100D5E000313AB0076300A128A116E210A128A1121
:100D6E00080083120313AA00D52F25302906031974
:100D7E00C12EC22EE82E2A0A8400831300080319FE
:100D8E00C92ECA2ED92E2908A2002208F0002A0A3E
:100D9E00840000080A128A1103200A128A11831293
:100DAE000313BB2E2908A2002A0884000008840021
:100DBE00220880000130A2002A0884002208800741
:100DCE00BB2EA5010130A007FF30200784000A12B8
:100DDE008A110C200A128A11A900A200A30123086D
:100DEE00003A0319FB2ED52F2208003A0319E92FDA
:100DFE00643A0319062F0D3A0319062FD52F210831
:100E0E00840083130008A2000230800722088400A9
:100E1E000008A700840A0008A800A81F172F182F83
:100E2E00212F0330A2002208A504A709A809A70AAA
:100E3E000319A80AA901A90A2908A2002207013E3E
:100E4E0084000A128A110C200A128A11A3000A12B7
:100E5E008A110C200A128A11A40024082802031DEC
:100E6E003A2F2308270203183D2F3E2F3F2F492FDD
:100E7E000130A2002208A90705302906031D482FBC
:100E8E00492F232F2508033903194E2F4F2F722F69
:100E9E002A0A8400831300080319562F572F642F34
:100EAE002D30A2002208F0002A0A840000080A123F
:100EBE008A1103200A128A11722F2D30A2002A08DD
:100ECE00840000088400220880000130A2002A0855
:100EDE00840022088007831203132908A200220827
:100EEE00A600CA2F0A30F8000030F9002608A2002A
:100EFE002207013E84000A128A110C200A128A115E
:100F0E00F0000A128A110C200A128A11F100280828
:100F1E00F3002708F2000A128A11AF220A128A1170
:100F2E007108FB007008FA000A128A1138220A12A0
:100F3E008A117808303E83120313A3002308A900F8
:100F4E002A0A8400831300080319AE2FAF2FBC2F7B
:100F5E002908A2002208F0002A0A840000080A12BA
:100F6E008A1103200A128A11CA2F2908A2002A0800
:100F7E00840000088400220880000130A2002A08A4
:100F8E00840022088007FF3083120313A200220878
:100F9E00A607260A031DD42FD52F792F01308312D1
:100FAE000313A007FF30200784000A128A110C20B9
:100FBE000A128A11A2002208A9002908031DE82F8F
:100FCE00E92FBC2EA001A101080083120313E90131
:100FDE00EA01EB01EC01ED01EE01EF0183160313C3
:100FEE00A001A101A201A301A40183010A128A1189
:020FFE00B22B14
:04400E00D420FF3F7C
:00000001FF
