:020000040000FA
:100000000A128A11F32FFF0000308A007F0882074E
:1000100008280A128A11382900308A000408840A44
:1000200082070034013400340A340034643400346C
:10003000E83403341034273445346C3469346A347A
:100040006134203475346E342034763461346C3449
:100050006F34723420346D3465346E346F347234DE
:1000600020346F34203469346734753461346C342F
:1000700020346134203435340D34003449346E3446
:1000800067347234653473346534203465346C34C9
:100090002034763461346C346F34723420346434F8
:1000A00065342034633465346E34743465346E34AE
:1000B00061340D34003445346C3469346A3461344D
:1000C000203475346E342034763461346C346F34BB
:1000D0007234203465346E347434723465342034B0
:1000E000303420347934203432340D3400344934FF
:1000F0006E34673472346534733465342034653457
:100100006C342034763461346C346F34723420347F
:1001100064346534203464346534633465346E3457
:1001200061340D34003449346E34673472346534CC
:1001300073346534203465346C342034763461345F
:100140006C346F3472342034643465342034753444
:100150006E3469346434613464340D3400340D34E5
:1001600020345634313420343D34203400340D34BE
:100170005634323420343D34203400340D340D34C0
:0C01800000342534643400342E34003484
:10024600F00070088312031393000800831603134B
:10025600141C2E292F292929080064008001840AEC
:1002660004060319003404063129831203130C1EF5
:100276003D293E2938297008990008000A128A117A
:1002860029210A128A118312031313080800F100A8
:10029600F0013A3071020318512952295A29303097
:1002A6007102031C572958295A29F001F00A700CCB
:1002B6000800F300831603138712731D632964294C
:1002C60068297208940087156C29700872049400D6
:1002D6008711730871048312031394000800033016
:1002E600831203131A02031C79297A2980294A30BA
:1002F6000A128A11C0210A128A11831203138C1E54
:100306008529862980291A08D03ED9005908A400D3
:1003160008000630831203131A02031C932994293A
:100326009A290B300A128A11C0210A128A118312E5
:1003360003138C1E9F29A0299A291A08D03ED9009A
:100346005908A30008000630831203131A02031C7F
:10035600AD29AE29B4290B300A128A11C0210A121E
:100366008A11831203138C1EB929BA29B4291A08D3
:10037600D03ED9005908A200080083120313D60004
:10038600D7010130D3005308D8007030D30053088A
:10039600D5005608D3005308C8005530D400540879
:1003A600C90057300A128A1135250A128A11080027
:1003B60083160317880189018316031386018801B2
:1003C60007118312031385018601870188018901BC
:1003D600831603130F128F160F170F14F001F10176
:1003E600F20120300A128A115C210A128A110800D1
:1003F60083120313D9005908D6005608DA00DB0128
:100406005430D6005608D8005308D6005608C800FF
:100416005830D7005708C9005A300A128A113525B4
:100426000A128A11831203135A0884008313800167
:100436000800F401F501701C212A222A282A7208D4
:10044600F4070318F50A7308F50701300310F20DD7
:10045600F30DFF3E031D292A01300310F10CF00CA9
:10046600FF3E031D302A70087104031D3B2A3C2AF7
:100476001E2A7508F1007408F0000800F2007208E0
:10048600F1007108F3004B2A0130F1007108F307FF
:100496007308840083130008031D522A532A472A2F
:1004A6005C2A0130F1007108F3070130F100710890
:1004B600F007700884000008F100730884007108D2
:1004C60080000008031D682A692A542A0800780853
:1004D600790403196F2A702A9F2AFD01FD0A7E2AD4
:1004E60001300310F80DF90DFF3E031D742A01308B
:1004F600FC007C08FD07F91F812A822A732A7908E5
:100506007B02031D882A78087A02031C8B2A8C2A10
:10051600922A7808FA027908031CFB03FB020130D1
:100526000310F90CF80CFF3E031D932A0130FD025F
:10053600031D9E2A9F2A822A7B08F9007A08F80062
:100546000800F501F601700871040319AB2AAC2AFC
:10055600E32AF701F70ABA2A01300310F00DF10D6C
:10056600FF3E031DB02A0130F4007408F707F11F9F
:10057600BD2ABE2AAF2A01300310F50DF60DFF3E47
:10058600031DBF2A71087302031DCB2A700872026D
:10059600031CCE2ACF2AD62A7008F2027108031C41
:1005A600F303F302751401300310F10CF00CFF3E57
:1005B600031DD72A0130F702031DE22AE32ABE2AC9
:1005C6007608F1007508F00008009E300A128A11BC
:1005D600C0210A128A11413083120313DA00ED306A
:1005E600D900D90BF42ADA0BF42AF92A8312031359
:1005F60027089900413083120313DA00ED30D90041
:10060600D90B032BDA0B032B082BB3300A128A11F2
:10061600C0210A128A11413083120313DA00ED3029
:10062600D900D90B142BDA0B142B192B83120313B5
:1006360026089900413083120313DA00ED30D90001
:10064600D90B232BDA0B232B282B83120313250814
:100656009900413083120313DA00ED30D900D90B2B
:10066600322BDA0B322B372BAD300A128A11C0210E
:100676000A128A110800A6300A128A11C0210A122B
:100686008A11413083120313DA00ED30D900D90BF9
:100696004A2BDA0B4A2B4F2B831203132708990098
:1006A600413083120313DA00ED30D900D90B592BF0
:1006B600DA0B592B5E2BB3300A128A11C0210A12AB
:1006C6008A11413083120313DA00ED30D900D90BB9
:1006D6006A2BDA0B6A2B6F2B8312031326089900F9
:1006E600413083120313DA00ED30D900D90B792B90
:1006F600DA0B792B7E2B83120313250899004130E0
:1007060083120313DA00ED30D900D90B882BDA0BEC
:10071600882B8D2BAD300A128A11C0210A128A113C
:100726000800F601F31F982B992BA02BF209F30969
:10073600F20A0319F30AF601F60AF11FA32BA42BFA
:10074600A92BF009F109F00A0319F10A70087104DE
:100756000319AE2BAF2BDE2BF501F50ABD2B0130AD
:100766000310F00DF10DFF3E031DB32B0130F40015
:100776007408F507F11FC02BC12BB22B7108730249
:10078600031DC72B70087202031CCA2BCB2BD12B5F
:100796007008F2027108031CF303F3020130031020
:1007A600F10CF00CFF3E031DD22B0130F502031DA8
:1007B600DD2BDE2BC12B76080319E22BE32BE82B6E
:1007C600F209F309F20A0319F30A7308F100720831
:1007D600F0000800FC006430F0000030F1007C08F6
:1007E600F900FA017908F2007A08F3000A128A1170
:1007F60053240A128A117008FB007B088312031324
:10080600A7006430F0000030F1007C08F900FA011E
:100816007908F2007A08F3000A128A1194230A1260
:100826008A117008FB007B0883120313A5000A30A7
:10083600F0000030F1002508F900FA017908F2000D
:100846007A08F3000A128A1153240A128A117008D0
:10085600FB007B0883120313A6000A30F000003069
:10086600F1002508F900FA017908F2007A08F30088
:100876000A128A1194230A128A117008FB007B0857
:1008860083120313A5003030F9007908A70730302A
:10089600F9007908A6073030F9007908A50708009D
:1008A600F601F11F572C582C5F2CF009F109F00ABC
:1008B6000319F10AF601F60AF31F622C632C6C2C5D
:1008C600F209F309F20A0319F30A0130F400740875
:1008D600F606F701F801700871040319732C742CDD
:1008E600AB2CF501F50A822C01300310F00DF10D49
:1008F600FF3E031D782C0130F4007408F507F11F44
:10090600852C862C772C01300310F70DF80DFF3E51
:10091600031D872C71087302031D932C7008720245
:10092600031C962C972C9E2C7008F2027108031C4F
:10093600F303F302771401300310F10CF00CFF3EC1
:10094600031D9F2C0130F502031DAA2CAB2C862C0F
:1009560076080319AF2CB02CB52CF709F809F70A5D
:100966000319F80A7808F1007708F0000800FD007E
:10097600C02C0130F8007808FD077D08840020307F
:10098600831300060319C82CC92CBC2C7D088400CF
:10099600093000060319D02CD12CBC2CFB01FC011C
:1009A600FA017D0884002D300006031DDB2CDC2CAB
:1009B600E52C0130F8007808FA070130F8007808CD
:1009C600FD07132D7D0884002B300006031DEC2C3B
:1009D600ED2C132D0130F8007808FD07132D7D0846
:1009E60084007C08F1007B08F0000A30F200003039
:1009F600F3000A128A111C220A128A1183130008B4
:100A06007007F8000030031801307107F900780804
:100A1600D03EFB0079080318013EFF3EFC00ED2C9A
:100A26007D08840000080A128A114A210A128A11D6
:100A360003181E2D1F2DF22C7A080319232D242DA1
:100A4600302D7B09F8007C09F900F80A0319F90A28
:100A56007808F6007908F700342D7C08F7007B0843
:100A6600F600080083120313D200522E25305106D9
:100A760003193E2D3F2D652D520A8400831300086D
:100A86000319462D472D562D5108CA004A08F00075
:100A9600520A840000080A128A1103200A128A11D7
:100AA60083120313382D5108CA0052088400000827
:100AB60084004A0880000130CA00520884004A08AF
:100AC6008007382DCD010130C807FF304807840064
:100AD6000A128A110C200A128A11D100CA00CB010F
:100AE6004B08003A0319782D522E4A08003A03198A
:100AF600662E643A0319832D0D3A0319832D522E5F
:100B06004908840083130008CA00023080074A0897
:100B160084000008CF00840A0008D000D01F942D5E
:100B2600952D9E2D0330CA004A08CD04CF09D00961
:100B3600CF0A0319D00AD101D10A5108CA004A07BF
:100B4600013E84000A128A110C200A128A11CB0077
:100B56000A128A110C200A128A11CC004C08500283
:100B6600031DB72D4B084F020318BA2DBB2DBC2D04
:100B7600C62D0130CA004A08D10705305106031DAB
:100B8600C52DC62DA02D4D0803390319CB2DCC2D0F
:100B9600EF2D520A8400831300080319D32DD42D98
:100BA600E12D2D30CA004A08F000520A84000008E0
:100BB6000A128A1103200A128A11EF2D2D30CA005B
:100BC60052088400000884004A0880000130CA00E8
:100BD600520884004A088007831203135108CA008A
:100BE6004A08CE00472E0A30F8000030F9004E08B9
:100BF600CA004A07013E84000A128A110C200A1212
:100C06008A11F0000A128A110C200A128A11F100C8
:100C16005008F3004F08F2000A128A11A4220A12A1
:100C26008A117108FB007008FA000A128A116A22FA
:100C36000A128A117808303E83120313CB004B0840
:100C4600D100520A84008313000803192B2E2C2E80
:100C5600392E5108CA004A08F000520A84000008DA
:100C66000A128A1103200A128A11472E5108CA0055
:100C760052088400000884004A0880000130CA0037
:100C8600520884004A088007FF3083120313CA0003
:100C96004A08CE074E0A031D512E522EF62D01305C
:100CA60083120313C807FF30480784000A128A110B
:100CB6000C200A128A11CA004A08D1005108031DE5
:100CC600652E662E392DC801C90108000A128A113F
:100CD600DB210A128A11831203130711C73083120C
:100CE6000313DC00762EDC0B752E792E0A300A12E1
:100CF6008A1123210A128A110A128A1141210A1223
:100D06008A1183120313DC005C08A900C730831222
:100D16000313DC008E2EDC0B8D2E912E0A300A1268
:100D26008A1123210A128A110A128A1141210A12F2
:100D36008A1183120313DC005C08A800C7308312F3
:100D46000313DC00A62EDC0BA52EA92E831203139B
:100D56000715413083120313DD00ED30DC00DC0B98
:100D6600B22EDD0BB22EB72E8312031329080A12F8
:100D76008A11ED230A128A110A128A11E8220A122E
:100D86008A11413083120313DD00ED30DC00DC0BE9
:100D9600CA2EDD0BCA2ECF2E8312031328080A1281
:100DA6008A11ED230A128A110A128A113E230A12A7
:100DB6008A11413083120313DD00ED30DC00DC0BB9
:100DC600E22EDD0BE22EE72E2D300A128A11C0210B
:100DD6000A128A11831203138C1EF22EF32EED2EA5
:100DE6001A08D03EDC005C08A400FE2E0A128A1106
:100DF60072210A128A113330831203131A0203185E
:100E0600052F062FF92E66300A128A11C0210A1202
:100E16008A11831203138C1E112F122F0C2F1A08FE
:100E2600D03EDC005C08A30002302406031D1C2F04
:100E36001D2F2B2F232F0A128A118C210A128A1199
:100E46003630831203131A0203182A2F2B2F1E2F54
:100E560082300A128A11C0210A128A1183120313E0
:100E66008C1E362F372F312F1A08D03EDC005C0837
:100E7600A20002302406031D412F422F562F0530B3
:100E86002306031D472F482F562F4E2F0A128A116D
:100E9600A6210A128A113630831203131A02031886
:100EA600552F562F492FB030DC005C08D30024089C
:100EB600DD00DE015D08D4005E08D5003E300A1272
:100EC6008A11FB210A128A11B03083120313DC0047
:100ED6005C08D3002308DD00DE015D08D4005E084F
:100EE600D50034300A128A11FB210A128A11B03059
:100EF60083120313DC005C08D3002208DD00DE0148
:100F06005D08D4005E08D5002A300A128A11FB213A
:100F16000A128A11343083120313DC005C08F000D5
:100F26003E300A128A1141220A128A112A3083128D
:100F36000313DC005C08F0003E300A128A114122DD
:100F46000A128A113E300A128A11BA240A128A112A
:100F5600770883120313A1007608A00020080A125E
:100F66008A11ED230A128A11823083120313DD00DF
:100F7600DD30DC00DC0BBD2FDD0BBD2F8312031330
:100F860027089900823083120313DD00DD30DC0070
:100F9600DC0BCB2FDD0BCB2F831203132608990016
:100FA600823083120313DD00DD30DC00DC0BD92F29
:100FB600DD0BD92F83120313250899008230831283
:100FC6000313DD00DD30DC00DC0BE72FDD0BE72F44
:100FD60083120313200888006E2E0A128A11002835
:100FE60083132030840048300A128A1130210A12F5
:0A0FF6008A1183010A128A11692E84
:04400E00D420FF3F7C
:00000001FF
