:020000040000FA
:060000000A128A11F12F23
:100EB400F0007008831203139300080083160313D1
:100EC400141C652F662F602F080064008001840ABB
:100ED4000406031900340406682F0A128A116027D5
:100EE4000A128A118312031313080800F3008316ED
:100EF40003138712731D7F2F802F842F7208940091
:100F04008715882F70087204940087117308710480
:100F140083120313940008008316031788018901C0
:100F240083160313871007118601880183120313A4
:100F340007158714850186018701880189018316B5
:100F440003130F128F160F170F14F001F101F201A2
:100F540020300A128A1178270A128A1108000A120C
:100F64008A118E270A128A11831203130711C730BC
:100F7400F400BC2FF40BBB2FBF2FC02F0A300A1272
:100F84008A115A270A128A110A128A116F270A1221
:100F94008A11F4007408F600C730F400D12FF40B62
:100FA400D02FD42FD52F0A300A128A115A270A12A9
:100FB4008A110A128A116F270A128A11F40074081E
:100FC400F500C730F400E62FF40BE52FE92FEA2FE4
:100FD400831203130715B62F0A128A110028F5018C
:100FE400F6018313203084003E300A128A116727E9
:0C0FF4000A128A1183010A128A11B12F1F
:04400E00D420FF3F7C
:00000001FF
