:020000040000FA
:060000000A128A110C280F
:10000800FE00030EF1000A08F2000A128A111628EF
:100018000A128A110F28F701F801F90183010A125F
:100028008A113629831203138C1D1B281C28722859
:100038001412141B202821282528941F2428252839
:100048002C281308F0007008F900141394131416E0
:1000580083160313941A312832284F281419352887
:1000680036284F28831203131308F0007008F9008C
:100078008C11141683160313141C432844283E2895
:10008800831203131308F0007008F7005330F000D0
:10009800F00B4C286F28941A522853286F28141DE7
:1000A800562857286F28831203131308F000700886
:1000B800F9008316031314107708831203139300AF
:1000C80014165330F000F00B672883160313141826
:1000D8006E286F286928831203138C110C1F75284A
:1000E800762888281F0CF000700C0F39003A031D81
:1000F8007E287F2887281E08F0007008F7001F0850
:10010800C33904389F000C1372088A00710E8300EB
:10011800FE0E7E0E0900F500DD28C330831203139E
:100128009F052130F300F30B9728831203131F1345
:100138009F131F14831603139F139F121F12F32874
:10014800C330831203139F052130F300F30BAA2851
:10015800831203131F179F131F14831603139F1370
:100168009F121F12F328C330831203139F052130F7
:10017800F300F30BBD28831203131F139F171F14DB
:10018800831603139F139F121F12F328C330831281
:1001980003139F052130F300F30BD02883120313B8
:1001A8001F179F171F14831603139F139F121F12E5
:1001B800F3287508F300F4017408003A0319E528D8
:1001C800F3287308003A03199128013A0319A4285F
:1001D800033A0319B728013A0319CA28F328080073
:1001E8000330831603178800890183160313051447
:1001F800860183120313850186018701880183160E
:1002080003130F128F160F170F148B170B170C17DA
:10021800831203130C1350300A128A111C210A127C
:100228008A1102300A128A118F200A128A110800D4
:10023800F3007308831603139300363083120313F5
:1002480094008030831603139400013091008715C1
:1002580007168B170B17831203138C1183160313BE
:100268008C1508000A128A11F4200A128A118312C6
:1002780003139F18402941293B292130F600F60B2A
:100288004329831203139F143B290A128A110C284D
:04400E00D420FF3F7C
:00000001FF
