:020000040000FA
:060000000A128A110C280F
:10000800FE00030EF0000A08F1000A128A11BF2947
:100018000A128A110F2883010A128A1113280A1258
:100028008A116C210A128A110A128A11B6210A123F
:100038008A115130F2000030F3000A128A11A3210C
:100048000A128A110030F200F3000A128A113E21C6
:100058000A128A1172088312031386000A128A117F
:10006800AD210A128A11023083120313AF00043043
:10007800AE00B930AD00AD0B3F28AE0B3F28AF0B3B
:100088003F2846280A128A11B6210A128A1180309E
:10009800F2000030F3000A128A11A3210A128A1111
:1000A800F330F2000030F3000A128A11A3210A1279
:1000B8008A11023083120313AF000430AE00B93046
:1000C800AD00AD0B6528AE0B6528AF0B65286C2815
:1000D8000A128A11B6210A128A118130F200003000
:1000E800F3000A128A11A3210A128A110030F200C1
:1000F800F3000A128A113E210A128A117208831229
:10010800031388000A128A11AD210A128A110230DB
:1001180083120313AF000430AE00B930AD00AD0B4D
:100128009328AE0B9328AF0B93289A2818280A1205
:100138008A110C28003083120313A3000030A20098
:100148000030A1000030A000750874047304720424
:100158000319AF28B028FD28A401A40AC02801303B
:10016800FA000310F20DF30DF40DF50DFA0BB52896
:100178000130FA007A08A407F51FC328C428B32859
:100188000130FA000310A00DA10DA20DA30DFA0B6A
:10019800C62875087902031DDB2874087802031D38
:1001A800DB2873087702031DDB2872087602031C1C
:1001B800DE28DF28EE287208F6027308031C730F86
:1001C800F7027408031C740FF8027508031C750FF6
:1001D800F902201401300310F50CF40CF30CF20CA6
:1001E800FF3E031DEF280130A402031DFC28FD2853
:1001F800C4282308F5002208F4002108F300200889
:10020800F2000800283083120313940083160313A6
:100218009101831203132508A9002608AA002708BC
:10022800AB002808AC0002300310A90DAA0DAB0DD5
:10023800AC0DFF3E031D18292C08F5002B08F4000F
:100248002A08F3002908F2000030F9007A30F80093
:100258001230F7000030F6000A128A119E200A12A6
:100268008A117208FF3E83160313930094018715C1
:10027800071608000A128A1196210A128A11831693
:10028800031391150A128A1196210A128A118312F0
:1002980003131308F400F5017408F6007508F70055
:1002A8000A128A1196210A128A1172037304031D15
:1002B8005E295F2963298316031391126629831621
:1002C8000313911611167708F3007608F200080058
:1002D8008316031788018901831603138601831285
:1002E8000313860183160313880183120313850100
:1002F8008601870188018901831603130F128F165F
:100308000F170F14003083120313A8000130A70041
:100318008630A600A030A5000A128A1106210A120A
:100328008A1108008316031314199B299C299629FE
:1003380011081F39031DA129A229962908000A12AC
:100348008A1196210A128A117208831203139300E4
:1003580008000A128A1196210A128A1183160313B9
:10036800111508000A128A1196210A128A11831699
:1003780003131114080071088A00700E8300FE0E22
:040388007E0E0900DC
:04400E00D420FF3F7C
:00000001FF
