:020000040000FA
:060000000A128A110C280F
:10000800FE00030EF0000A08F1000A128A11092AFC
:100018000A128A110F288313203084004B300A12E9
:100028008A1101220A128A1183010A128A111C28D4
:100038000A128A11AC210A128A110A128A11F821AD
:100048000A128A115130F2000030F3000A128A11A4
:10005800E5210A128A110030F200F3000A128A110F
:100068007E210A128A117208831203138600060879
:10007800D8005808CA000A128A11EF210A128A11F8
:10008800023083120313DA000430D900B930D800E3
:10009800D80B4C28D90B4C28DA0B4C2853280A12B9
:1000A8008A11F8210A128A116130F2000030F30037
:1000B8000A128A11E5210A128A110030F200F300AF
:1000C8000A128A117E210A128A11720883120313F6
:1000D80085000A128A11EF210A128A11023083124E
:1000E8000313DA000430D900B930D800D80B7A28C5
:1000F800D90B7A28DA0B7A2881280A128A11F82172
:100108000A128A118030F2000030F3000A128A11B4
:10011800E5210A128A11F330F2000030F3000A12C6
:100128008A11E5210A128A110A128A11EF210A128C
:100138008A11023083120313DA000430D900B9306F
:10014800D800D80BA528D90BA528DA0BA528AC28E8
:100158000A128A11F8210A128A118130F20000303D
:10016800F3000A128A11E5210A128A110030F200FE
:10017800F3000A128A117E210A128A117208831268
:10018800031388000A128A11EF210A128A11023019
:1001980083120313DA000430D900B930D800D80B21
:1001A800D328D90BD328DA0BD328DA2821280A1226
:1001B8008A110C28003083120313CE000030CD00C2
:1001C8000030CC000030CB0075087404730472044E
:1001D8000319EF28F0283D29CF01CF0A0029013063
:1001E800FA000310F20DF30DF40DF50DFA0BF528D6
:1001F8000130FA007A08CF07F51F03290429F328EC
:100208000130FA000310CB0DCC0DCD0DCE0DFA0B3D
:10021800062975087902031D1B2974087802031D35
:100228001B2973087702031D1B2972087602031C19
:100238001E291F292E297208F6027308031C730F42
:10024800F7027408031C740FF8027508031C750F75
:10025800F9024B1401300310F50CF40CF30CF20CFA
:10026800FF3E031D2F290130CF02031D3C293D29E4
:1002780004294E08F5004D08F4004C08F3004B081B
:10028800F200080028308312031394008316031326
:100298009101831203135008D4005108D500520865
:1002A800D6005308D70002300310D40DD50DD60D53
:1002B800D70DFF3E031D58295708F5005608F400CE
:1002C8005508F3005408F2000030F9007A30F800BD
:1002D8001230F7000030F6000A128A11DE200A12E6
:1002E8008A117208FF3E8316031393009401871541
:1002F800071608000A128A11D8210A128A118316D1
:10030800031391150A128A11D8210A128A1183122D
:1003180003131308F400F5017408F6007508F700D4
:100328000A128A11D8210A128A1172037304031D52
:100338009E299F29A329831603139112A6298316A0
:100348000313911611167708F3007608F2000800D7
:100358008316031788018901831603138501860113
:100368008312031385018601831603138801831200
:100378000313850186018701880189018316031308
:100388000F128F160F170F14003083120313D300A8
:100398000130D2008630D100A030D0000A128A1174
:1003A80046210A128A110800831603131419DD293D
:1003B800DE29D82911081F39031DE329E429D82982
:1003C80008000A128A11D8210A128A1172088312A7
:1003D8000313930008000A128A11D8210A128A11FD
:1003E80083160313111508000A128A11D8210A125C
:1003F8008A11831603131114080064008001840A0B
:100408000406031900340406022A71088A00700ED3
:080418008300FE0E7E0E0900B8
:04400E00D420FF3F7C
:00000001FF
