:020000040000FA
:060000000A128A110C280F
:10000800FE00030EF0000A08F1000A128A11942E6D
:100018000A128A110F28FB0183120313CF01D001A2
:10002800D101D20183010A128A11F729831203131D
:100038002D088039AE002E08B7002D08AE002E0717
:10004800AF002F08BE00AC1F2A282B282C283E14EE
:100058003E0803193028312841283E0A031D352857
:1000680036283E280030AD000030AC000030AB0030
:100078000030AA00AC17AD0149280030AD000030AF
:10008800AC000030AB000030AA0029088039AE006F
:100098002E08B7062908AE002E07AF002F08BF00AC
:1000A800A81F5728582859283F143F0803195D28C6
:1000B8005E286E283F0A031D622863286B280030DB
:1000C800A9000030A8000030A7000030A600A8173B
:1000D800A90176280030A9000030A8000030A70048
:1000E8000030A6002908280427042604031D7D28BB
:1000F8007E2897280030AD000030AC000030AB00FF
:100108000030AA008030AC047F30AD043708AE0060
:100118002E08AD042D08A9002C08A8002B08A7005C
:100128002A08A600F6293E08031D9B289C28A52816
:100138000030A9000030A8000030A7000030A60059
:10014800F6293E08AE00AF012F08B1003F082E0285
:10015800B000031CB10330087F3EB8003108031813
:10016800013E003EB9002D08B6002C08B5002B084A
:10017800B4002A08B3000030AD000030AC000030F5
:10018800AB000030AA000030BD000030BC000030D9
:10019800BB000030BA00BF011B293F080319D5284E
:1001A800D628F6280130AE000310B30DB40DB50DF6
:1001B800B60DAE0BD8280130AE000310AA0DAB0D5A
:1001C800AC0DAD0DAE0BE128BD1FEB28EC28ED28DA
:1001D8002A140130AE000310BA0DBB0DBC0DBD0DC5
:1001E800AE0BEF2829083602031D0429280835021A
:1001F800031D042927083402031D04292608330295
:10020800031C0729082917293D172608B3022708C0
:10021800031C270FB4022808031C280FB50229085D
:10022800031C290FB6020130AE002E08BF071A3092
:100238003F02031C20292129D1283608350434041B
:10024800330403192829292948293A14482901304F
:10025800AE000310AA0DAB0DAC0DAD0DAE0B2D29E4
:10026800BD1F3729382939292A140130AE00031057
:10027800BA0DBB0DBC0DBD0DAE0B3B29FF30B80749
:100288000318B90AFF30B907AC1F4B294C292B2991
:10029800BF01BD1F502951296D29FF303A05AE0015
:1002A800FF303B05AF00FF303C05B0007F303D0517
:1002B800B100310830042F042E040319642965297C
:1002C8006829BF01BF0A6D292A1C6B296C296D2971
:1002D80065293F08031971297229A3290130AA0742
:1002E800003003180130AB07003003180130AC07A9
:1002F800003003180130AD072D1C83298429A32958
:100308002A08AE002B08AF002C08B0002D08B10059
:100318000130B200310DB10CB00CAF0CAE0CB20B09
:100328008E293108AD003008AC002F08AB002E082C
:10033800AA000130B8070318B90A0030B90739080C
:10034800803AFF0080307F02031DAC29FF3038025D
:10035800031CAF29B029BE29FF3083120313B8004C
:100368000030B9000030AD000030AC000030AB0008
:100378000030AA00831203133908803AFF00803046
:100388007F02031DC929013038020318CC29CD2961
:10039800DA2983120313B801B9010030AD00003027
:1003A800AC000030AB000030AA00B7018312031381
:1003B8003808AE002E08BE003E1CE329E429E629D1
:1003C800AC17EA297F30AE002E08AC053E08AE0017
:1003D80003102E0CAF002F08AD003708AE002E0812
:1003E800AD048E2808000A128A11F0250A128A1113
:1003F8000A128A11CE240A128A110A128A11872631
:100408000A128A11831203138F018E010614023017
:1004180083120313CB00CB0B0F2A000083120313A4
:100428000610061E182A192A152A1014061A1D2A3B
:100438001E2A1A2A10100F08CE000E08CD004D08EB
:10044800F2004E08F3000030F31BFF30F400F50013
:1004580001300A128A112F230A128A117508831291
:100468000313AD007408AC007308AB007208AA004F
:100478004230A9006B30A8004730A700AE30A60074
:100488000A128A111A200A128A11831203132908E0
:10049800C3002808C2002708C1002608C0000A12A5
:1004A8008A11EB230A128A11831203134108CE0022
:1004B8004008CD004D08013ECD004E080318013E0E
:1004C800003ECE004E08803AFF0080307F02031DB8
:1004D8006F2A02304D02031C722A732A212B8312C1
:1004E80003134E08803AFF0081307F02031D7E2AE5
:1004F80091304D020318812A822A212B0A128A116F
:1005080087260A128A11F601F60A01300A128A11A0
:1005180014260A128A1101300A128A11CB250A12EE
:100528008A110E3083120313CB004B08F6000130FA
:100538000A128A1114260A128A110A30F2000030AF
:10054800F300831203134E08F5004D08F4000A1255
:100558008A1134250A128A117208303E0A128A1149
:1005680058260A128A110A30F2000030F30083126A
:1005780003134E08F5004D08F4000A128A11672487
:100588000A128A11730883120313CE007208CD0071
:100598000D30CB004B08F60001300A128A111426E0
:1005A8000A128A110A30F2000030F3008312031392
:1005B8004E08F5004D08F4000A128A1134250A1273
:1005C8008A117208303E0A128A1158260A128A11B4
:1005D8000A30F2000030F300831203134E08F500CE
:1005E8004D08F4000A128A1167240A128A11730846
:1005F80083120313CE007208CD000C30CB004B08D9
:10060800F60001300A128A1114260A128A110A30D9
:10061800F2000030F300831203134E08F5004D0872
:10062800F4000A128A1134250A128A117208303E1F
:100638000A128A1158260A128A1182308312031369
:10064800CC00DD30CB00CB0B272BCC0B272B062A7D
:100658000A128A110C2883120313A0002008031918
:10066800362B372B4B2BF51F3A2B3B2B4B2B720979
:10067800A2007309A3007409A4007509A500A20AC1
:100688000319A30A0319A40A0319A50A532B750809
:10069800A5007408A4007308A3007208A2007508D6
:1006A800740473047204031D5A2B5B2B642B0030F3
:1006B800F5000030F4000030F3000030F200EA2BBF
:1006C8009630F6007608A100762B0130F600760801
:1006D800A10701300310A50CA40CA30CA20CFF3E2B
:1006E800031D6E2BFE302505031D7B2B7C2B692BF0
:1006F800982B0130F6007608A1070130A2070030D8
:1007080003180130A307003003180130A407003094
:1007180003180130A50701300310A50CA40CA30C85
:10072800A20CFF3E031D902BFF302505031D9D2BBA
:100738009E2B7D2BAA2B0130A1020130F60003105D
:10074800A20DA30DA40DA50DF60BA32BA41BAD2B79
:10075800AE2BB42B023021020318B32BB42B9F2BE2
:100768002118B72BB82BC02BFF30A205FF30A305EB
:100778007F30A405FF30A5050310A10C2108F60061
:10078800F701F801F90118300310F60DF70DF80D0F
:10079800F90DFF3E031DC82B7608A2047708A304B1
:1007A8007808A4047908A50420080319DC2BDD2B9C
:1007B800E22BF51FE02BE12BE22BA5172508F5000E
:1007C8002408F4002308F3002208F20008000310AC
:1007D80083120313420D430DC4004408CA004A089B
:1007E800031DF72BF82B012C0030C3000030C2008A
:1007F8000030C1000030C000662C4008C400410829
:10080800C5004208C6004308C7001F300310C70CC4
:10081800C60CC50CC40CFF3E031D0A2C4408C800B6
:100828004808C900C217FF30C005FF30C105FF30B6
:10083800C2050030C3059630CA02CA1F242C252CD5
:100848003F2C4A08803A973E03182B2C2C2C2D2C31
:10085800F82B01300310C30CC20CC10CC00CFF3EB6
:10086800031D2E2C0130C4004408CA07031D3D2C6B
:100878003E2C2D2C562C20304A02031C442C452C8F
:10088800512CF82B0130C4000310C00DC10DC20D4E
:10089800C30DC40B482C0130CA024A08031D552C4D
:1008A800562C462C490803195A2C5B2C662CC00977
:1008B800C109C209C309C00A0319C10A0319C20A36
:1008C8000319C30A0800F801F31F6B2C6C2C732C56
:1008D800F209F309F20A0319F30AF801F80AF51FF5
:1008E800762C772C802CF409F509F40A0319F50AFB
:1008F8000130F6007608F806F901FA017208730467
:100908000319872C882CBF2CF701F70A962C013085
:100918000310F20DF30DFF3E031D8C2C0130F60081
:100928007608F707F31F992C9A2C8B2C01300310AB
:10093800F90DFA0DFF3E031D9B2C73087502031D6C
:10094800A72C72087402031CAA2CAB2CB22C7208B8
:10095800F4027308031CF503F5027914013003103F
:10096800F30CF20CFF3E031DB32C0130F702031DFC
:10097800BE2CBF2C9A2C78080319C32CC42CC92C64
:10098800F909FA09F90A0319FA0A7A08F300790841
:10099800F20008001A30F700F830F600F60BD22CF7
:1009A800F70BD22C000030300A128A1138260A12AE
:1009B8008A110730F7007D30F600F60BE12CF70BB3
:1009C800E12C30300A128A1138260A128A11213095
:1009D800F600F60BED2C30300A128A1138260A126E
:1009E8008A112130F600F60BF72C38300A128A11DA
:1009F80038260A128A111330F600F60B012D042D41
:100A080008300A128A1138260A128A111330F600A1
:100A1800F60B0C2D0F2D01300A128A1138260A12F6
:100A28008A110730F7007D30F600F60B192DF70B09
:100A3800192D06300A128A1138260A128A11133023
:100A4800F600F60B252D282D0C300A128A113826AF
:100A58000A128A111330F600F60B302D332D0800D8
:100A6800F801F51F382D392D402DF409F509F40A40
:100A78000319F50AF801F80AF31F432D442D492DEF
:100A8800F209F309F20A0319F30A72087304031945
:100A98004E2D4F2D7E2DF701F70A5D2D01300310E5
:100AA800F20DF30DFF3E031D532D0130F6007608BD
:100AB800F707F31F602D612D522D73087502031D72
:100AC800672D72087402031C6A2D6B2D712D720834
:100AD800F4027308031CF503F50201300310F30C4C
:100AE800F20CFF3E031D722D0130F702031D7D2D10
:100AF8007E2D612D78080319822D832D882DF40908
:100B0800F509F40A0319F50A7508F3007408F200E8
:100B18000800F200721C912D922D962D831203135A
:100B28000814992D831203130810F21C9C2D9D2D77
:100B38009F2D8814A02D8810721DA32DA42DA62DDD
:100B48000815A72D0811F21DAA2DAB2DAD2D88155E
:100B5800AE2D8811721EB12DB22DB42D0816B52DEB
:100B68000812F21EB82DB92DBB2D8816BC2D88127F
:100B7800721FBF2DC02DC22D0817C32D0813F21FD9
:100B8800C62DC72DC92D8817CA2D88130800F70050
:100B9800F501F601E22D7508770784000A128A111B
:100BA80074260A128A110A128A1158260A128A1100
:100BB8000130F5070318F60A0030F60775087707BD
:100BC80084000A128A1174260A128A11003A031D37
:100BD800EE2DEF2DCF2D080083160317880189010C
:100BE8008316031306100612880189018312031362
:100BF800850186018701880189010B178316031374
:100C08008C16831203138C128B17831603130F177A
:100C18008F160F160F14103083120313900008005C
:100C2800F8007803031D192E1A2E262E7608803E0A
:100C3800F7007708F90079080A128A1138260A128B
:100C48008A11372E02307806031D2B2E2C2E372EB4
:100C58007608C03EF7007708F90079080A128A1169
:100C680038260A128A110800F500831203130910A6
:100C780075080A128A118D250A128A118312031324
:100C88008914462E472E00008312031389104C2E18
:100C98004D2E00000330F4009730F300F30B522E72
:100CA800F40B522E572E0800F40083120313091474
:100CB80074080A128A118D250A128A1183120313E5
:100CC8008914662E672E00008312031389106C2E78
:100CD8006D2E00001030F300F30B702E000008009A
:100CE80006308A000408840A8207003444344934F0
:100CF8005334543441344E34433449344134203429
:100D08003D342034003400300A128A1138260A1281
:100D18008A1101300A128A1138260A128A1108002B
:0E0D280071088A00700E8300FE0E7E0E090018
:04400E00D420FF3F7C
:00000001FF
